{
  "_format": "hh-sol-artifact-1",
  "contractName": "AccessControl",
  "sourceName": "contracts/AccessControl.sol",
  "abi": [
    {
      "anonymous": false,
      "inputs": [
        {
          "indexed": true,
          "internalType": "address",
          "name": "requester",
          "type": "address"
        },
        {
          "indexed": false,
          "internalType": "string",
          "name": "cidType",
          "type": "string"
        },
        {
          "indexed": false,
          "internalType": "string",
          "name": "ipfsHash",
          "type": "string"
        }
      ],
      "name": "AccessDenied",
      "type": "event"
    },
    {
      "anonymous": false,
      "inputs": [
        {
          "indexed": true,
          "internalType": "address",
          "name": "requester",
          "type": "address"
        },
        {
          "indexed": false,
          "internalType": "string",
          "name": "cidType",
          "type": "string"
        },
        {
          "indexed": false,
          "internalType": "string",
          "name": "ipfsHash",
          "type": "string"
        }
      ],
      "name": "AccessGranted",
      "type": "event"
    },
    {
      "anonymous": false,
      "inputs": [
        {
          "indexed": true,
          "internalType": "address",
          "name": "requester",
          "type": "address"
        },
        {
          "indexed": false,
          "internalType": "string",
          "name": "cidType",
          "type": "string"
        },
        {
          "indexed": false,
          "internalType": "string",
          "name": "ipfsHash",
          "type": "string"
        }
      ],
      "name": "AccessRequested",
      "type": "event"
    },
    {
      "anonymous": false,
      "inputs": [
        {
          "indexed": true,
          "internalType": "string",
          "name": "cidType",
          "type": "string"
        },
        {
          "indexed": true,
          "internalType": "string",
          "name": "ipfsHash",
          "type": "string"
        },
        {
          "indexed": true,
          "internalType": "address",
          "name": "uploader",
          "type": "address"
        }
      ],
      "name": "FileSubmitted",
      "type": "event"
    },
    {
      "anonymous": false,
      "inputs": [
        {
          "indexed": true,
          "internalType": "address",
          "name": "user",
          "type": "address"
        },
        {
          "indexed": true,
          "internalType": "bytes32",
          "name": "proofId",
          "type": "bytes32"
        },
        {
          "indexed": false,
          "internalType": "bool",
          "name": "isQualified",
          "type": "bool"
        },
        {
          "indexed": false,
          "internalType": "uint256",
          "name": "timestamp",
          "type": "uint256"
        }
      ],
      "name": "ProofStored",
      "type": "event"
    },
    {
      "anonymous": false,
      "inputs": [
        {
          "indexed": true,
          "internalType": "address",
          "name": "verifier",
          "type": "address"
        },
        {
          "indexed": true,
          "internalType": "bytes32",
          "name": "proofId",
          "type": "bytes32"
        },
        {
          "indexed": false,
          "internalType": "bool",
          "name": "isValid",
          "type": "bool"
        },
        {
          "indexed": false,
          "internalType": "uint256",
          "name": "timestamp",
          "type": "uint256"
        }
      ],
      "name": "ProofVerified",
      "type": "event"
    },
    {
      "inputs": [
        {
          "internalType": "address",
          "name": "",
          "type": "address"
        },
        {
          "internalType": "string",
          "name": "",
          "type": "string"
        }
      ],
      "name": "accessGranted",
      "outputs": [
        {
          "internalType": "bool",
          "name": "",
          "type": "bool"
        }
      ],
      "stateMutability": "view",
      "type": "function"
    },
    {
      "inputs": [
        {
          "internalType": "address",
          "name": "bankAddress",
          "type": "address"
        }
      ],
      "name": "addApprovedBank",
      "outputs": [],
      "stateMutability": "nonpayable",
      "type": "function"
    },
    {
      "inputs": [
        {
          "internalType": "address",
          "name": "",
          "type": "address"
        }
      ],
      "name": "approvedBanks",
      "outputs": [
        {
          "internalType": "bool",
          "name": "",
          "type": "bool"
        }
      ],
      "stateMutability": "view",
      "type": "function"
    },
    {
      "inputs": [
        {
          "internalType": "address",
          "name": "requester",
          "type": "address"
        },
        {
          "internalType": "string",
          "name": "cidType",
          "type": "string"
        },
        {
          "internalType": "string",
          "name": "ipfsHash",
          "type": "string"
        }
      ],
      "name": "checkAccess",
      "outputs": [
        {
          "internalType": "bool",
          "name": "",
          "type": "bool"
        }
      ],
      "stateMutability": "view",
      "type": "function"
    },
    {
      "inputs": [
        {
          "internalType": "address",
          "name": "requester",
          "type": "address"
        },
        {
          "internalType": "string",
          "name": "cidType",
          "type": "string"
        },
        {
          "internalType": "string",
          "name": "ipfsHash",
          "type": "string"
        }
      ],
      "name": "denyAccess",
      "outputs": [],
      "stateMutability": "nonpayable",
      "type": "function"
    },
    {
      "inputs": [
        {
          "internalType": "string",
          "name": "cidType",
          "type": "string"
        }
      ],
      "name": "getCID",
      "outputs": [
        {
          "internalType": "string",
          "name": "",
          "type": "string"
        }
      ],
      "stateMutability": "view",
      "type": "function"
    },
    {
      "inputs": [
        {
          "internalType": "address",
          "name": "requester",
          "type": "address"
        },
        {
          "internalType": "string",
          "name": "cidType",
          "type": "string"
        },
        {
          "internalType": "string",
          "name": "ipfsHash",
          "type": "string"
        }
      ],
      "name": "grantAccess",
      "outputs": [],
      "stateMutability": "nonpayable",
      "type": "function"
    },
    {
      "inputs": [],
      "name": "loanContractAddress",
      "outputs": [
        {
          "internalType": "address",
          "name": "",
          "type": "address"
        }
      ],
      "stateMutability": "view",
      "type": "function"
    },
    {
      "inputs": [
        {
          "internalType": "bytes32",
          "name": "",
          "type": "bytes32"
        }
      ],
      "name": "proofs",
      "outputs": [
        {
          "internalType": "bytes",
          "name": "proofBytes",
          "type": "bytes"
        },
        {
          "internalType": "bool",
          "name": "isQualified",
          "type": "bool"
        },
        {
          "internalType": "bool",
          "name": "isUsed",
          "type": "bool"
        },
        {
          "internalType": "uint256",
          "name": "timestamp",
          "type": "uint256"
        }
      ],
      "stateMutability": "view",
      "type": "function"
    },
    {
      "inputs": [
        {
          "internalType": "address",
          "name": "bankAddress",
          "type": "address"
        }
      ],
      "name": "removeApprovedBank",
      "outputs": [],
      "stateMutability": "nonpayable",
      "type": "function"
    },
    {
      "inputs": [
        {
          "internalType": "address",
          "name": "requester",
          "type": "address"
        },
        {
          "internalType": "string",
          "name": "cidType",
          "type": "string"
        },
        {
          "internalType": "string",
          "name": "ipfsHash",
          "type": "string"
        }
      ],
      "name": "requestAccess",
      "outputs": [],
      "stateMutability": "nonpayable",
      "type": "function"
    },
    {
      "inputs": [
        {
          "internalType": "address",
          "name": "_loanContractAddress",
          "type": "address"
        }
      ],
      "name": "setLoanContractAddress",
      "outputs": [],
      "stateMutability": "nonpayable",
      "type": "function"
    },
    {
      "inputs": [
        {
          "internalType": "address",
          "name": "_verifierAddress",
          "type": "address"
        }
      ],
      "name": "setVerifierAddress",
      "outputs": [],
      "stateMutability": "nonpayable",
      "type": "function"
    },
    {
      "inputs": [
        {
          "internalType": "bytes32",
          "name": "proofId",
          "type": "bytes32"
        },
        {
          "internalType": "uint256[8]",
          "name": "proof",
          "type": "uint256[8]"
        },
        {
          "internalType": "bytes32[]",
          "name": "publicSignals",
          "type": "bytes32[]"
        },
        {
          "internalType": "bool",
          "name": "isQualified",
          "type": "bool"
        }
      ],
      "name": "storeProof",
      "outputs": [],
      "stateMutability": "nonpayable",
      "type": "function"
    },
    {
      "inputs": [
        {
          "internalType": "string",
          "name": "_ipfsHash",
          "type": "string"
        },
        {
          "internalType": "string",
          "name": "_cidType",
          "type": "string"
        }
      ],
      "name": "submitFileHash",
      "outputs": [],
      "stateMutability": "nonpayable",
      "type": "function"
    },
    {
      "inputs": [],
      "name": "verifier",
      "outputs": [
        {
          "internalType": "contract IVerifier",
          "name": "",
          "type": "address"
        }
      ],
      "stateMutability": "view",
      "type": "function"
    },
    {
      "inputs": [],
      "name": "verifierAddress",
      "outputs": [
        {
          "internalType": "address",
          "name": "",
          "type": "address"
        }
      ],
      "stateMutability": "view",
      "type": "function"
    },
    {
      "inputs": [
        {
          "internalType": "bytes32",
          "name": "proofId",
          "type": "bytes32"
        }
      ],
      "name": "verifyProof",
      "outputs": [
        {
          "internalType": "bool",
          "name": "isValid",
          "type": "bool"
        },
        {
          "internalType": "bool",
          "name": "isQualified",
          "type": "bool"
        }
      ],
      "stateMutability": "nonpayable",
      "type": "function"
    }
  ],
  "bytecode": "0x6080604052348015600f57600080fd5b50612a7e8061001f6000396000f3fe608060405234801561001057600080fd5b50600436106101165760003560e01c8063444d95b0116100a25780638fc284e4116100715780638fc284e4146102f4578063a7e2981414610310578063b142b4ec1461032c578063b2ba07db1461035d578063f7d9e1571461037957610116565b8063444d95b01461026b57806349524ec41461029e5780634fb54564146102ba5780637ebda7b1146102d857610116565b80631c461ee1116100e95780631c461ee1146101a15780632b7ac3f3146101d1578063334a1da9146101ef5780633474b2721461020b5780633fafccfd1461023b57610116565b806301f317411461011b5780630b5d27e01461013757806317e955261461016757806318bdffbb14610183575b600080fd5b610135600480360381019061013091906116c3565b610395565b005b610151600480360381019061014c91906118ed565b610569565b60405161015e9190611987565b60405180910390f35b610181600480360381019061017c91906119a2565b610621565b005b61018b6106a6565b60405161019891906119de565b60405180910390f35b6101bb60048036038101906101b691906119f9565b6106cc565b6040516101c89190611ac1565b60405180910390f35b6101d961077c565b6040516101e69190611b42565b60405180910390f35b610209600480360381019061020491906118ed565b6107a2565b005b61022560048036038101906102209190611b5d565b61086b565b6040516102329190611987565b60405180910390f35b610255600480360381019061025091906119a2565b6108b0565b6040516102629190611987565b60405180910390f35b61028560048036038101906102809190611bb9565b6108d0565b6040516102959493929190611c54565b60405180910390f35b6102b860048036038101906102b391906119a2565b6109a2565b005b6102c26109fd565b6040516102cf91906119de565b60405180910390f35b6102f260048036038101906102ed91906119a2565b610a23565b005b61030e60048036038101906103099190611ca0565b610a7e565b005b61032a600480360381019061032591906118ed565b610c12565b005b61034660048036038101906103419190611bb9565b610c67565b604051610354929190611d18565b60405180910390f35b610377600480360381019061037291906119a2565b61120e565b005b610393600480360381019061038e91906118ed565b611252565b005b600080600087815260200190815260200160002060030154146103ed576040517f08c379a00000000000000000000000000000000000000000000000000000000081526004016103e490611d8d565b60405180910390fd5b6000846040516020016104009190611dc7565b60405160208183030381529060405290506040518060a00160405280828152602001858580806020026020016040519081016040528093929190818152602001838360200280828437600081840152601f19601f82011690508083019250505050505050815260200183151581526020016000151581526020014281525060008088815260200190815260200160002060008201518160000190816104a59190611fe5565b5060208201518160010190805190602001906104c2929190611524565b5060408201518160020160006101000a81548160ff02191690831515021790555060608201518160020160016101000a81548160ff02191690831515021790555060808201518160030155905050853373ffffffffffffffffffffffffffffffffffffffff167f5585092ff44a396863dff50e3c5ae7005c0fd5fd5eac5875cfbe067a9f139ae284426040516105599291906120b7565b60405180910390a3505050505050565b6000600560008573ffffffffffffffffffffffffffffffffffffffff1673ffffffffffffffffffffffffffffffffffffffff168152602001908152602001600020836040516105b8919061211c565b908152602001604051809103902060009054906101000a900460ff168015610618575081805190602001206006846040516105f3919061211c565b908152602001604051809103902060405161060e91906121d6565b6040518091039020145b90509392505050565b80600460006101000a81548173ffffffffffffffffffffffffffffffffffffffff021916908373ffffffffffffffffffffffffffffffffffffffff16021790555080600160006101000a81548173ffffffffffffffffffffffffffffffffffffffff021916908373ffffffffffffffffffffffffffffffffffffffff16021790555050565b600460009054906101000a900473ffffffffffffffffffffffffffffffffffffffff1681565b60606006826040516106de919061211c565b908152602001604051809103902080546106f790611e12565b80601f016020809104026020016040519081016040528092919081815260200182805461072390611e12565b80156107705780601f1061074557610100808354040283529160200191610770565b820191906000526020600020905b81548152906001019060200180831161075357829003601f168201915b50505050509050919050565b600160009054906101000a900473ffffffffffffffffffffffffffffffffffffffff1681565b6000600560008573ffffffffffffffffffffffffffffffffffffffff1673ffffffffffffffffffffffffffffffffffffffff168152602001908152602001600020836040516107f1919061211c565b908152602001604051809103902060006101000a81548160ff0219169083151502179055508273ffffffffffffffffffffffffffffffffffffffff167f97ae09733cca9eef7d02590cf0182b669e8cc6c208d7feaf18849faf71472632838360405161085e9291906121ed565b60405180910390a2505050565b6005602052816000526040600020818051602081018201805184825260208301602085012081835280955050505050506000915091509054906101000a900460ff1681565b60026020528060005260406000206000915054906101000a900460ff1681565b60006020528060005260406000206000915090508060000180546108f390611e12565b80601f016020809104026020016040519081016040528092919081815260200182805461091f90611e12565b801561096c5780601f106109415761010080835404028352916020019161096c565b820191906000526020600020905b81548152906001019060200180831161094f57829003601f168201915b5050505050908060020160009054906101000a900460ff16908060020160019054906101000a900460ff16908060030154905084565b6000600260008373ffffffffffffffffffffffffffffffffffffffff1673ffffffffffffffffffffffffffffffffffffffff16815260200190815260200160002060006101000a81548160ff02191690831515021790555050565b600360009054906101000a900473ffffffffffffffffffffffffffffffffffffffff1681565b6001600260008373ffffffffffffffffffffffffffffffffffffffff1673ffffffffffffffffffffffffffffffffffffffff16815260200190815260200160002060006101000a81548160ff02191690831515021790555050565b6000825111610ac2576040517f08c379a0000000000000000000000000000000000000000000000000000000008152600401610ab990612270565b60405180910390fd5b6000815111610b06576040517f08c379a0000000000000000000000000000000000000000000000000000000008152600401610afd906122dc565b60405180910390fd5b6000600682604051610b18919061211c565b90815260200160405180910390208054610b3190611e12565b905014610b73576040517f08c379a0000000000000000000000000000000000000000000000000000000008152600401610b6a90612348565b60405180910390fd5b81600682604051610b84919061211c565b90815260200160405180910390209081610b9e91906123c3565b503373ffffffffffffffffffffffffffffffffffffffff1682604051610bc4919061211c565b604051809103902082604051610bda919061211c565b60405180910390207f911eedd0be6f6736ab82b17740e2ca4a213a7c511e726ed97d993d18a648fb6e60405160405180910390a45050565b8273ffffffffffffffffffffffffffffffffffffffff167f92264dff32b9f839b4e621e9346db1fae9efeca8cb7eca8a8b88db3566adffe28383604051610c5a9291906121ed565b60405180910390a2505050565b600080610ca86040518060400160405280600f81526020017f496e20766572696669636174696f6e00000000000000000000000000000000008152506113ac565b610cc960008060008681526020019081526020016000206003015411611445565b60008060008581526020019081526020016000206003015411610d21576040517f08c379a0000000000000000000000000000000000000000000000000000000008152600401610d18906124e1565b60405180910390fd5b610d4d60008085815260200190815260200160002060020160019054906101000a900460ff1615611445565b60008084815260200190815260200160002060020160019054906101000a900460ff1615610db0576040517f08c379a0000000000000000000000000000000000000000000000000000000008152600401610da79061254d565b60405180910390fd5b600080600085815260200190815260200160002090506000816000018054610dd790611e12565b80601f0160208091040260200160405190810160405280929190818152602001828054610e0390611e12565b8015610e505780601f10610e2557610100808354040283529160200191610e50565b820191906000526020600020905b815481529060010190602001808311610e3357829003601f168201915b5050505050806020019051810190610e68919061264a565b9050610ea86040518060400160405280601081526020017f76616c69646174696e672070726f6f66000000000000000000000000000000008152506113ac565b610eb0611571565b60005b836001018054905081108015610ec95750600481105b15610f2157836001018181548110610ee457610ee3612678565b5b906000526020600020015460001c828260048110610f0557610f04612678565b5b6020020181815250508080610f19906126d6565b915050610eb3565b506000600160009054906101000a900473ffffffffffffffffffffffffffffffffffffffff1673ffffffffffffffffffffffffffffffffffffffff16635fe8c13b604051806040016040528086600060088110610f8157610f80612678565b5b6020020151815260200186600160088110610f9f57610f9e612678565b5b60200201518152506040518060400160405280604051806040016040528089600260088110610fd157610fd0612678565b5b6020020151815260200189600360088110610fef57610fee612678565b5b6020020151815250815260200160405180604001604052808960046008811061101b5761101a612678565b5b602002015181526020018960056008811061103957611038612678565b5b602002015181525081525060405180604001604052808860066008811061106357611062612678565b5b602002015181526020018860076008811061108157611080612678565b5b6020020151815250866040518563ffffffff1660e01b81526004016110a9949392919061294b565b602060405180830381865afa1580156110c6573d6000803e3d6000fd5b505050506040513d601f19601f820116820180604052508101906110ea91906129a7565b905061112a6040518060400160405280600f81526020017f70726f6f662076616c69646174656400000000000000000000000000000000008152506113ac565b801561115f57600160008089815260200190815260200160002060020160016101000a81548160ff0219169083151502179055505b61119d6040518060400160405280601c81526020017f656d697474696e67206576656e7420616e642072657475726e696e67000000008152506113ac565b863373ffffffffffffffffffffffffffffffffffffffff167fcea9b1835a4aae1f8a306158168e5392d3359494e8e345ba606709673515138383426040516111e69291906120b7565b60405180910390a3808460020160009054906101000a900460ff169550955050505050915091565b80600360006101000a81548173ffffffffffffffffffffffffffffffffffffffff021916908373ffffffffffffffffffffffffffffffffffffffff16021790555050565b6001600560008573ffffffffffffffffffffffffffffffffffffffff1673ffffffffffffffffffffffffffffffffffffffff168152602001908152602001600020836040516112a1919061211c565b908152602001604051809103902060006101000a81548160ff021916908315150217905550600360009054906101000a900473ffffffffffffffffffffffffffffffffffffffff1673ffffffffffffffffffffffffffffffffffffffff1663932d4e018484846040518463ffffffff1660e01b8152600401611325939291906129d4565b600060405180830381600087803b15801561133f57600080fd5b505af1158015611353573d6000803e3d6000fd5b505050508273ffffffffffffffffffffffffffffffffffffffff167f83d90dfabb9dd5929f37bedd596ec8b76fec40556dcf87a93c891c43ecbc35a2838360405161139f9291906121ed565b60405180910390a2505050565b611442816040516024016113c09190611ac1565b6040516020818303038152906040527f41304fac000000000000000000000000000000000000000000000000000000007bffffffffffffffffffffffffffffffffffffffffffffffffffffffff19166020820180517bffffffffffffffffffffffffffffffffffffffffffffffffffffffff83818316178352505050506114de565b50565b6114db816040516024016114599190611987565b6040516020818303038152906040527f32458eed000000000000000000000000000000000000000000000000000000007bffffffffffffffffffffffffffffffffffffffffffffffffffffffff19166020820180517bffffffffffffffffffffffffffffffffffffffffffffffffffffffff83818316178352505050506114de565b50565b6114f5816114ed6114f8611519565b63ffffffff16565b50565b60006a636f6e736f6c652e6c6f679050600080835160208501845afa505050565b611593819050919050565b828054828255906000526020600020908101928215611560579160200282015b8281111561155f578251825591602001919060010190611544565b5b50905061156d919061159d565b5090565b6040518060800160405280600490602082028036833780820191505090505090565b61159b612a19565b565b5b808211156115b657600081600090555060010161159e565b5090565b6000604051905090565b600080fd5b600080fd5b6000819050919050565b6115e1816115ce565b81146115ec57600080fd5b50565b6000813590506115fe816115d8565b92915050565b600080fd5b60008190508260206008028201111561162557611624611604565b5b92915050565b600080fd5b600080fd5b60008083601f84011261164b5761164a61162b565b5b8235905067ffffffffffffffff81111561166857611667611630565b5b60208301915083602082028301111561168457611683611604565b5b9250929050565b60008115159050919050565b6116a08161168b565b81146116ab57600080fd5b50565b6000813590506116bd81611697565b92915050565b600080600080600061016086880312156116e0576116df6115c4565b5b60006116ee888289016115ef565b95505060206116ff88828901611609565b94505061012086013567ffffffffffffffff811115611721576117206115c9565b5b61172d88828901611635565b9350935050610140611741888289016116ae565b9150509295509295909350565b600073ffffffffffffffffffffffffffffffffffffffff82169050919050565b60006117798261174e565b9050919050565b6117898161176e565b811461179457600080fd5b50565b6000813590506117a681611780565b92915050565b600080fd5b6000601f19601f8301169050919050565b7f4e487b7100000000000000000000000000000000000000000000000000000000600052604160045260246000fd5b6117fa826117b1565b810181811067ffffffffffffffff82111715611819576118186117c2565b5b80604052505050565b600061182c6115ba565b905061183882826117f1565b919050565b600067ffffffffffffffff821115611858576118576117c2565b5b611861826117b1565b9050602081019050919050565b82818337600083830152505050565b600061189061188b8461183d565b611822565b9050828152602081018484840111156118ac576118ab6117ac565b5b6118b784828561186e565b509392505050565b600082601f8301126118d4576118d361162b565b5b81356118e484826020860161187d565b91505092915050565b600080600060608486031215611906576119056115c4565b5b600061191486828701611797565b935050602084013567ffffffffffffffff811115611935576119346115c9565b5b611941868287016118bf565b925050604084013567ffffffffffffffff811115611962576119616115c9565b5b61196e868287016118bf565b9150509250925092565b6119818161168b565b82525050565b600060208201905061199c6000830184611978565b92915050565b6000602082840312156119b8576119b76115c4565b5b60006119c684828501611797565b91505092915050565b6119d88161176e565b82525050565b60006020820190506119f360008301846119cf565b92915050565b600060208284031215611a0f57611a0e6115c4565b5b600082013567ffffffffffffffff811115611a2d57611a2c6115c9565b5b611a39848285016118bf565b91505092915050565b600081519050919050565b600082825260208201905092915050565b60005b83811015611a7c578082015181840152602081019050611a61565b60008484015250505050565b6000611a9382611a42565b611a9d8185611a4d565b9350611aad818560208601611a5e565b611ab6816117b1565b840191505092915050565b60006020820190508181036000830152611adb8184611a88565b905092915050565b6000819050919050565b6000611b08611b03611afe8461174e565b611ae3565b61174e565b9050919050565b6000611b1a82611aed565b9050919050565b6000611b2c82611b0f565b9050919050565b611b3c81611b21565b82525050565b6000602082019050611b576000830184611b33565b92915050565b60008060408385031215611b7457611b736115c4565b5b6000611b8285828601611797565b925050602083013567ffffffffffffffff811115611ba357611ba26115c9565b5b611baf858286016118bf565b9150509250929050565b600060208284031215611bcf57611bce6115c4565b5b6000611bdd848285016115ef565b91505092915050565b600081519050919050565b600082825260208201905092915050565b6000611c0d82611be6565b611c178185611bf1565b9350611c27818560208601611a5e565b611c30816117b1565b840191505092915050565b6000819050919050565b611c4e81611c3b565b82525050565b60006080820190508181036000830152611c6e8187611c02565b9050611c7d6020830186611978565b611c8a6040830185611978565b611c976060830184611c45565b95945050505050565b60008060408385031215611cb757611cb66115c4565b5b600083013567ffffffffffffffff811115611cd557611cd46115c9565b5b611ce1858286016118bf565b925050602083013567ffffffffffffffff811115611d0257611d016115c9565b5b611d0e858286016118bf565b9150509250929050565b6000604082019050611d2d6000830185611978565b611d3a6020830184611978565b9392505050565b7f50726f6f6620494420616c726561647920657869737473000000000000000000600082015250565b6000611d77601783611a4d565b9150611d8282611d41565b602082019050919050565b60006020820190508181036000830152611da681611d6a565b9050919050565b82818337505050565b611dc36101008383611dad565b5050565b600061010082019050611ddd6000830184611db6565b92915050565b7f4e487b7100000000000000000000000000000000000000000000000000000000600052602260045260246000fd5b60006002820490506001821680611e2a57607f821691505b602082108103611e3d57611e3c611de3565b5b50919050565b60008190508160005260206000209050919050565b60006020601f8301049050919050565b600082821b905092915050565b600060088302611ea57fffffffffffffffffffffffffffffffffffffffffffffffffffffffffffffffff82611e68565b611eaf8683611e68565b95508019841693508086168417925050509392505050565b6000611ee2611edd611ed884611c3b565b611ae3565b611c3b565b9050919050565b6000819050919050565b611efc83611ec7565b611f10611f0882611ee9565b848454611e75565b825550505050565b600090565b611f25611f18565b611f30818484611ef3565b505050565b5b81811015611f5457611f49600082611f1d565b600181019050611f36565b5050565b601f821115611f9957611f6a81611e43565b611f7384611e58565b81016020851015611f82578190505b611f96611f8e85611e58565b830182611f35565b50505b505050565b600082821c905092915050565b6000611fbc60001984600802611f9e565b1980831691505092915050565b6000611fd58383611fab565b9150826002028217905092915050565b611fee82611be6565b67ffffffffffffffff811115612007576120066117c2565b5b6120118254611e12565b61201c828285611f58565b600060209050601f83116001811461204f576000841561203d578287015190505b6120478582611fc9565b8655506120af565b601f19841661205d86611e43565b60005b8281101561208557848901518255600182019150602085019450602081019050612060565b868310156120a2578489015161209e601f891682611fab565b8355505b6001600288020188555050505b505050505050565b60006040820190506120cc6000830185611978565b6120d96020830184611c45565b9392505050565b600081905092915050565b60006120f682611a42565b61210081856120e0565b9350612110818560208601611a5e565b80840191505092915050565b600061212882846120eb565b915081905092915050565b600081905092915050565b60008190508160005260206000209050919050565b6000815461216081611e12565b61216a8186612133565b94506001821660008114612185576001811461219a576121cd565b60ff19831686528115158202860193506121cd565b6121a38561213e565b60005b838110156121c5578154818901526001820191506020810190506121a6565b838801955050505b50505092915050565b60006121e28284612153565b915081905092915050565b600060408201905081810360008301526122078185611a88565b9050818103602083015261221b8184611a88565b90509392505050565b7f4950465320686173682063616e6e6f7420626520656d70747900000000000000600082015250565b600061225a601983611a4d565b915061226582612224565b602082019050919050565b600060208201905081810360008301526122898161224d565b9050919050565b7f43494420547970652063616e6e6f7420626520656d7074790000000000000000600082015250565b60006122c6601883611a4d565b91506122d182612290565b602082019050919050565b600060208201905081810360008301526122f5816122b9565b9050919050565b7f434944205479706520616c7265616479207375626d6974746564000000000000600082015250565b6000612332601a83611a4d565b915061233d826122fc565b602082019050919050565b6000602082019050818103600083015261236181612325565b9050919050565b60008190508160005260206000209050919050565b601f8211156123be5761238f81612368565b61239884611e58565b810160208510156123a7578190505b6123bb6123b385611e58565b830182611f35565b50505b505050565b6123cc82611a42565b67ffffffffffffffff8111156123e5576123e46117c2565b5b6123ef8254611e12565b6123fa82828561237d565b600060209050601f83116001811461242d576000841561241b578287015190505b6124258582611fc9565b86555061248d565b601f19841661243b86612368565b60005b828110156124635784890151825560018201915060208501945060208101905061243e565b86831015612480578489015161247c601f891682611fab565b8355505b6001600288020188555050505b505050505050565b7f50726f6f6620646f6573206e6f74206578697374000000000000000000000000600082015250565b60006124cb601483611a4d565b91506124d682612495565b602082019050919050565b600060208201905081810360008301526124fa816124be565b9050919050565b7f50726f6f662068617320616c7265616479206265656e20757365640000000000600082015250565b6000612537601b83611a4d565b915061254282612501565b602082019050919050565b600060208201905081810360008301526125668161252a565b9050919050565b600067ffffffffffffffff821115612588576125876117c2565b5b602082029050919050565b61259c81611c3b565b81146125a757600080fd5b50565b6000815190506125b981612593565b92915050565b60006125d26125cd8461256d565b611822565b905080602084028301858111156125ec576125eb611604565b5b835b81811015612615578061260188826125aa565b8452602084019350506020810190506125ee565b5050509392505050565b600082601f8301126126345761263361162b565b5b60086126418482856125bf565b91505092915050565b60006101008284031215612661576126606115c4565b5b600061266f8482850161261f565b91505092915050565b7f4e487b7100000000000000000000000000000000000000000000000000000000600052603260045260246000fd5b7f4e487b7100000000000000000000000000000000000000000000000000000000600052601160045260246000fd5b60006126e182611c3b565b91507fffffffffffffffffffffffffffffffffffffffffffffffffffffffffffffffff8203612713576127126126a7565b5b600182019050919050565b600060029050919050565b600081905092915050565b6000819050919050565b61274781611c3b565b82525050565b6000612759838361273e565b60208301905092915050565b6000602082019050919050565b61277b8161271e565b6127858184612729565b925061279082612734565b8060005b838110156127c15781516127a8878261274d565b96506127b383612765565b925050600181019050612794565b505050505050565b600060029050919050565b600081905092915050565b6000819050919050565b600081905092915050565b6127fd8161271e565b61280781846127e9565b925061281282612734565b8060005b8381101561284357815161282a878261274d565b965061283583612765565b925050600181019050612816565b505050505050565b600061285783836127f4565b60408301905092915050565b6000602082019050919050565b612879816127c9565b61288381846127d4565b925061288e826127df565b8060005b838110156128bf5781516128a6878261284b565b96506128b183612863565b925050600181019050612892565b505050505050565b600060049050919050565b600081905092915050565b6000819050919050565b6000602082019050919050565b6128fd816128c7565b61290781846128d2565b9250612912826128dd565b8060005b8381101561294357815161292a878261274d565b9650612935836128e7565b925050600181019050612916565b505050505050565b6000610180820190506129616000830187612772565b61296e6040830186612870565b61297b60c0830185612772565b6129896101008301846128f4565b95945050505050565b6000815190506129a181611697565b92915050565b6000602082840312156129bd576129bc6115c4565b5b60006129cb84828501612992565b91505092915050565b60006060820190506129e960008301866119cf565b81810360208301526129fb8185611a88565b90508181036040830152612a0f8184611a88565b9050949350505050565b7f4e487b7100000000000000000000000000000000000000000000000000000000600052605160045260246000fdfea264697066735822122022445251fbe27c0e4e97d456dae4c90bfe2654282e875846bb014d953020a74764736f6c634300081c0033",
  "linkReferences": {},
  "deployedLinkReferences": {}
}