{
  "_format": "hh-sol-artifact-1",
  "contractName": "LoanContract",
  "sourceName": "contracts/LoanContract.sol",
  "abi": [
    {
      "inputs": [
        {
          "internalType": "address",
          "name": "_mortgageLoanContractAddress",
          "type": "address"
        },
        {
          "internalType": "address",
          "name": "_userContractAddress",
          "type": "address"
        }
      ],
      "stateMutability": "nonpayable",
      "type": "constructor"
    },
    {
      "anonymous": false,
      "inputs": [
        {
          "indexed": true,
          "internalType": "address",
          "name": "requester",
          "type": "address"
        },
        {
          "indexed": false,
          "internalType": "string",
          "name": "cidType",
          "type": "string"
        },
        {
          "indexed": false,
          "internalType": "string",
          "name": "ipfsHash",
          "type": "string"
        }
      ],
      "name": "AccessRequestGranted",
      "type": "event"
    },
    {
      "anonymous": false,
      "inputs": [
        {
          "indexed": true,
          "internalType": "address",
          "name": "applicant",
          "type": "address"
        },
        {
          "indexed": true,
          "internalType": "bytes32",
          "name": "proofId",
          "type": "bytes32"
        },
        {
          "indexed": false,
          "internalType": "bool",
          "name": "isApproved",
          "type": "bool"
        },
        {
          "indexed": false,
          "internalType": "uint256",
          "name": "timestamp",
          "type": "uint256"
        }
      ],
      "name": "LoanApplicationProcessed",
      "type": "event"
    },
    {
      "anonymous": false,
      "inputs": [
        {
          "indexed": true,
          "internalType": "address",
          "name": "applicant",
          "type": "address"
        },
        {
          "indexed": true,
          "internalType": "bytes32",
          "name": "proofId",
          "type": "bytes32"
        },
        {
          "indexed": false,
          "internalType": "uint256",
          "name": "amount",
          "type": "uint256"
        },
        {
          "indexed": false,
          "internalType": "uint256",
          "name": "timestamp",
          "type": "uint256"
        }
      ],
      "name": "LoanApplicationSubmitted",
      "type": "event"
    },
    {
      "anonymous": false,
      "inputs": [
        {
          "indexed": true,
          "internalType": "uint256",
          "name": "loanId",
          "type": "uint256"
        },
        {
          "indexed": false,
          "internalType": "uint256",
          "name": "amount",
          "type": "uint256"
        },
        {
          "indexed": false,
          "internalType": "string",
          "name": "personalCID",
          "type": "string"
        },
        {
          "indexed": false,
          "internalType": "string",
          "name": "financialCID",
          "type": "string"
        },
        {
          "indexed": false,
          "internalType": "address",
          "name": "borrower",
          "type": "address"
        },
        {
          "indexed": false,
          "internalType": "string",
          "name": "loanType",
          "type": "string"
        }
      ],
      "name": "LoanApproved",
      "type": "event"
    },
    {
      "anonymous": false,
      "inputs": [
        {
          "indexed": true,
          "internalType": "uint256",
          "name": "loanId",
          "type": "uint256"
        },
        {
          "indexed": false,
          "internalType": "uint256",
          "name": "amount",
          "type": "uint256"
        },
        {
          "indexed": false,
          "internalType": "string",
          "name": "personalCID",
          "type": "string"
        },
        {
          "indexed": false,
          "internalType": "string",
          "name": "financialCID",
          "type": "string"
        },
        {
          "indexed": false,
          "internalType": "address",
          "name": "borrower",
          "type": "address"
        },
        {
          "indexed": false,
          "internalType": "string",
          "name": "loanType",
          "type": "string"
        }
      ],
      "name": "LoanDenied",
      "type": "event"
    },
    {
      "inputs": [
        {
          "internalType": "address",
          "name": "sender",
          "type": "address"
        },
        {
          "internalType": "uint256",
          "name": "amount",
          "type": "uint256"
        },
        {
          "internalType": "bytes32",
          "name": "proofId",
          "type": "bytes32"
        }
      ],
      "name": "applyForLoan",
      "outputs": [],
      "stateMutability": "nonpayable",
      "type": "function"
    },
    {
      "inputs": [
        {
          "internalType": "uint256",
          "name": "_loanId",
          "type": "uint256"
        },
        {
          "internalType": "uint256",
          "name": "_amount",
          "type": "uint256"
        },
        {
          "internalType": "string",
          "name": "_personalCID",
          "type": "string"
        },
        {
          "internalType": "string",
          "name": "_financialCID",
          "type": "string"
        },
        {
          "internalType": "address",
          "name": "_borrower",
          "type": "address"
        },
        {
          "internalType": "string",
          "name": "loanType",
          "type": "string"
        }
      ],
      "name": "approveLoan",
      "outputs": [],
      "stateMutability": "nonpayable",
      "type": "function"
    },
    {
      "inputs": [
        {
          "internalType": "uint256",
          "name": "_loanId",
          "type": "uint256"
        },
        {
          "internalType": "uint256",
          "name": "_amount",
          "type": "uint256"
        },
        {
          "internalType": "string",
          "name": "_personalCID",
          "type": "string"
        },
        {
          "internalType": "string",
          "name": "_financialCID",
          "type": "string"
        },
        {
          "internalType": "address",
          "name": "_borrower",
          "type": "address"
        },
        {
          "internalType": "string",
          "name": "loanType",
          "type": "string"
        }
      ],
      "name": "denyLoan",
      "outputs": [],
      "stateMutability": "nonpayable",
      "type": "function"
    },
    {
      "inputs": [
        {
          "internalType": "uint256",
          "name": "_loanId",
          "type": "uint256"
        }
      ],
      "name": "getLoanDetails",
      "outputs": [
        {
          "internalType": "uint256",
          "name": "amount",
          "type": "uint256"
        },
        {
          "internalType": "string",
          "name": "personalCID",
          "type": "string"
        },
        {
          "internalType": "string",
          "name": "financialCID",
          "type": "string"
        },
        {
          "internalType": "bool",
          "name": "isApproved",
          "type": "bool"
        },
        {
          "internalType": "bool",
          "name": "isDenied",
          "type": "bool"
        },
        {
          "internalType": "address",
          "name": "borrower",
          "type": "address"
        },
        {
          "internalType": "string",
          "name": "loanType",
          "type": "string"
        }
      ],
      "stateMutability": "view",
      "type": "function"
    },
    {
      "inputs": [
        {
          "internalType": "address",
          "name": "",
          "type": "address"
        },
        {
          "internalType": "uint256",
          "name": "",
          "type": "uint256"
        }
      ],
      "name": "loanApplications",
      "outputs": [
        {
          "internalType": "address",
          "name": "applicant",
          "type": "address"
        },
        {
          "internalType": "uint256",
          "name": "amount",
          "type": "uint256"
        },
        {
          "internalType": "bytes32",
          "name": "proofId",
          "type": "bytes32"
        },
        {
          "internalType": "bool",
          "name": "isApproved",
          "type": "bool"
        },
        {
          "internalType": "uint256",
          "name": "timestamp",
          "type": "uint256"
        }
      ],
      "stateMutability": "view",
      "type": "function"
    },
    {
      "inputs": [
        {
          "internalType": "uint256",
          "name": "",
          "type": "uint256"
        }
      ],
      "name": "loans",
      "outputs": [
        {
          "internalType": "uint256",
          "name": "loanId",
          "type": "uint256"
        },
        {
          "internalType": "uint256",
          "name": "amount",
          "type": "uint256"
        },
        {
          "internalType": "string",
          "name": "personalCID",
          "type": "string"
        },
        {
          "internalType": "string",
          "name": "financialCID",
          "type": "string"
        },
        {
          "internalType": "bool",
          "name": "isApproved",
          "type": "bool"
        },
        {
          "internalType": "bool",
          "name": "isDenied",
          "type": "bool"
        },
        {
          "internalType": "address",
          "name": "borrower",
          "type": "address"
        },
        {
          "internalType": "string",
          "name": "loanType",
          "type": "string"
        }
      ],
      "stateMutability": "view",
      "type": "function"
    },
    {
      "inputs": [],
      "name": "mortgageLoanContractAddress",
      "outputs": [
        {
          "internalType": "address",
          "name": "",
          "type": "address"
        }
      ],
      "stateMutability": "view",
      "type": "function"
    },
    {
      "inputs": [
        {
          "internalType": "address",
          "name": "requester",
          "type": "address"
        },
        {
          "internalType": "string",
          "name": "cidType",
          "type": "string"
        },
        {
          "internalType": "string",
          "name": "ipfsHash",
          "type": "string"
        }
      ],
      "name": "requestAccessGranted",
      "outputs": [],
      "stateMutability": "nonpayable",
      "type": "function"
    },
    {
      "inputs": [],
      "name": "userContractAddress",
      "outputs": [
        {
          "internalType": "address",
          "name": "",
          "type": "address"
        }
      ],
      "stateMutability": "view",
      "type": "function"
    }
  ],
  "bytecode": "0x608060405234801561001057600080fd5b506040516123f33803806123f38339818101604052810190610032919061011d565b816000806101000a81548173ffffffffffffffffffffffffffffffffffffffff021916908373ffffffffffffffffffffffffffffffffffffffff16021790555080600160006101000a81548173ffffffffffffffffffffffffffffffffffffffff021916908373ffffffffffffffffffffffffffffffffffffffff160217905550505061015d565b600080fd5b600073ffffffffffffffffffffffffffffffffffffffff82169050919050565b60006100ea826100bf565b9050919050565b6100fa816100df565b811461010557600080fd5b50565b600081519050610117816100f1565b92915050565b60008060408385031215610134576101336100ba565b5b600061014285828601610108565b925050602061015385828601610108565b9150509250929050565b6122878061016c6000396000f3fe608060405234801561001057600080fd5b50600436106100935760003560e01c806372cba5101161006657806372cba5101461013c578063932d4e0114610158578063a67ff71714610174578063d92aabfc14610190578063e1ec3c68146101ae57610093565b806301b8bf1c14610098578063434ddcb2146100b45780635377879e146100d257806366877b8d14610106575b600080fd5b6100b260048036038101906100ad9190611500565b6101e5565b005b6100bc6106de565b6040516100c99190611562565b60405180910390f35b6100ec60048036038101906100e7919061157d565b610702565b6040516100fd9594939291906115f6565b60405180910390f35b610120600480360381019061011b9190611649565b610782565b6040516101339796959493929190611706565b60405180910390f35b610156600480360381019061015191906118bf565b610a44565b005b610172600480360381019061016d91906119a0565b610d74565b005b61018e600480360381019061018991906118bf565b610dc9565b005b6101986110f9565b6040516101a59190611562565b60405180910390f35b6101c860048036038101906101c39190611649565b61111f565b6040516101dc989796959493929190611a2b565b60405180910390f35b6102236040518060400160405280600c81526020017f496e20736f6c69646974793a0000000000000000000000000000000000000000815250611339565b60008211610266576040517f08c379a000000000000000000000000000000000000000000000000000000000815260040161025d90611b30565b60405180910390fd5b60006040518060a001604052808573ffffffffffffffffffffffffffffffffffffffff1681526020018481526020018381526020016000151581526020014281525090506102e86040518060400160405280600e81526020017f4c6f616e207375626d6974746564000000000000000000000000000000000000815250611339565b600260008573ffffffffffffffffffffffffffffffffffffffff1673ffffffffffffffffffffffffffffffffffffffff16815260200190815260200160002081908060018154018082558091505060019003906000526020600020906005020160009091909190915060008201518160000160006101000a81548173ffffffffffffffffffffffffffffffffffffffff021916908373ffffffffffffffffffffffffffffffffffffffff160217905550602082015181600101556040820151816002015560608201518160030160006101000a81548160ff0219169083151502179055506080820151816004015550506104166040518060400160405280600b81526020017f4c6f616e20707573686564000000000000000000000000000000000000000000815250611339565b818473ffffffffffffffffffffffffffffffffffffffff167f850c6ec1e9027af52ef26a8403f0c5cceaa5019a79ba439197772951e4c0c01c854260405161045f929190611b50565b60405180910390a36104a56040518060400160405280601a81526020017f4c6f616e207375626d697474656420616e6420656d6974746564000000000000815250611339565b600080600160009054906101000a900473ffffffffffffffffffffffffffffffffffffffff1673ffffffffffffffffffffffffffffffffffffffff1663b142b4ec856040518263ffffffff1660e01b81526004016105039190611b79565b60408051808303816000875af1158015610521573d6000803e3d6000fd5b505050506040513d601f19601f820116820180604052508101906105459190611bc0565b915091506105876040518060400160405280600f81526020017f70726f6f662076616c6964617465640000000000000000000000000000000000815250611339565b60008280156105935750815b905060006001600260008a73ffffffffffffffffffffffffffffffffffffffff1673ffffffffffffffffffffffffffffffffffffffff168152602001908152602001600020805490506105e69190611c2f565b905081600260008a73ffffffffffffffffffffffffffffffffffffffff1673ffffffffffffffffffffffffffffffffffffffff168152602001908152602001600020828154811061063a57610639611c63565b5b906000526020600020906005020160030160006101000a81548160ff02191690831515021790555061068360405180606001604052806024815260200161222e60249139611339565b858873ffffffffffffffffffffffffffffffffffffffff167f3fc3d3ff135edf2c2b8fd297dcef4b40b25fc1165618395b20a23ee58d05886f84426040516106cc929190611c92565b60405180910390a35050505050505050565b60008054906101000a900473ffffffffffffffffffffffffffffffffffffffff1681565b6002602052816000526040600020818154811061071e57600080fd5b9060005260206000209060050201600091509150508060000160009054906101000a900473ffffffffffffffffffffffffffffffffffffffff16908060010154908060020154908060030160009054906101000a900460ff16908060040154905085565b6000606080600080600060606000600360008a81526020019081526020016000206040518061010001604052908160008201548152602001600182015481526020016002820180546107d390611cea565b80601f01602080910402602001604051908101604052809291908181526020018280546107ff90611cea565b801561084c5780601f106108215761010080835404028352916020019161084c565b820191906000526020600020905b81548152906001019060200180831161082f57829003601f168201915b5050505050815260200160038201805461086590611cea565b80601f016020809104026020016040519081016040528092919081815260200182805461089190611cea565b80156108de5780601f106108b3576101008083540402835291602001916108de565b820191906000526020600020905b8154815290600101906020018083116108c157829003601f168201915b505050505081526020016004820160009054906101000a900460ff161515151581526020016004820160019054906101000a900460ff161515151581526020016004820160029054906101000a900473ffffffffffffffffffffffffffffffffffffffff1673ffffffffffffffffffffffffffffffffffffffff1673ffffffffffffffffffffffffffffffffffffffff16815260200160058201805461098390611cea565b80601f01602080910402602001604051908101604052809291908181526020018280546109af90611cea565b80156109fc5780601f106109d1576101008083540402835291602001916109fc565b820191906000526020600020905b8154815290600101906020018083116109df57829003601f168201915b505050505081525050905080602001518160400151826060015183608001518460a001518560c001518660e00151975097509750975097509750975050919395979092949650565b6003600087815260200190815260200160002060040160009054906101000a900460ff16158015610a9657506003600087815260200190815260200160002060040160019054906101000a900460ff16155b610ad5576040517f08c379a0000000000000000000000000000000000000000000000000000000008152600401610acc90611d67565b60405180910390fd5b6040518061010001604052808781526020018681526020018581526020018481526020016000151581526020016001151581526020018373ffffffffffffffffffffffffffffffffffffffff168152602001828152506003600088815260200190815260200160002060008201518160000155602082015181600101556040820151816002019081610b679190611f33565b506060820151816003019081610b7d9190611f33565b5060808201518160040160006101000a81548160ff02191690831515021790555060a08201518160040160016101000a81548160ff02191690831515021790555060c08201518160040160026101000a81548173ffffffffffffffffffffffffffffffffffffffff021916908373ffffffffffffffffffffffffffffffffffffffff16021790555060e0820151816005019081610c1a9190611f33565b50905050604051602001610c2d9061205c565b6040516020818303038152906040528051906020012081604051602001610c5491906120a2565b6040516020818303038152906040528051906020012003610d2b5760008054906101000a900473ffffffffffffffffffffffffffffffffffffffff1673ffffffffffffffffffffffffffffffffffffffff1663bc6b37d060008054906101000a900473ffffffffffffffffffffffffffffffffffffffff168888888888886040518863ffffffff1660e01b8152600401610cf497969594939291906120b9565b600060405180830381600087803b158015610d0e57600080fd5b505af1158015610d22573d6000803e3d6000fd5b50505050610d6c565b857f95d2043393def9792f1af305d3c95d2fd7ea7ba21b890ec76744628717e42c528686868686604051610d6395949392919061213d565b60405180910390a25b505050505050565b8273ffffffffffffffffffffffffffffffffffffffff167f10e1ed07d8fe057a66b8f3ef03a008a9c446826893ce827bdfda5f3f2c7ca5268383604051610dbc9291906121a5565b60405180910390a2505050565b6003600087815260200190815260200160002060040160009054906101000a900460ff16158015610e1b57506003600087815260200190815260200160002060040160019054906101000a900460ff16155b610e5a576040517f08c379a0000000000000000000000000000000000000000000000000000000008152600401610e5190611d67565b60405180910390fd5b6040518061010001604052808781526020018681526020018581526020018481526020016001151581526020016000151581526020018373ffffffffffffffffffffffffffffffffffffffff168152602001828152506003600088815260200190815260200160002060008201518160000155602082015181600101556040820151816002019081610eec9190611f33565b506060820151816003019081610f029190611f33565b5060808201518160040160006101000a81548160ff02191690831515021790555060a08201518160040160016101000a81548160ff02191690831515021790555060c08201518160040160026101000a81548173ffffffffffffffffffffffffffffffffffffffff021916908373ffffffffffffffffffffffffffffffffffffffff16021790555060e0820151816005019081610f9f9190611f33565b50905050604051602001610fb29061205c565b6040516020818303038152906040528051906020012081604051602001610fd991906120a2565b60405160208183030381529060405280519060200120036110b05760008054906101000a900473ffffffffffffffffffffffffffffffffffffffff1673ffffffffffffffffffffffffffffffffffffffff16633b1d512b60008054906101000a900473ffffffffffffffffffffffffffffffffffffffff168888888888886040518863ffffffff1660e01b815260040161107997969594939291906120b9565b600060405180830381600087803b15801561109357600080fd5b505af11580156110a7573d6000803e3d6000fd5b505050506110f1565b857f7cef427645a1f2c40d3135ced2aa36847b48e19b3747390724fd477bb64f06b486868686866040516110e895949392919061213d565b60405180910390a25b505050505050565b600160009054906101000a900473ffffffffffffffffffffffffffffffffffffffff1681565b600360205280600052604060002060009150905080600001549080600101549080600201805461114e90611cea565b80601f016020809104026020016040519081016040528092919081815260200182805461117a90611cea565b80156111c75780601f1061119c576101008083540402835291602001916111c7565b820191906000526020600020905b8154815290600101906020018083116111aa57829003601f168201915b5050505050908060030180546111dc90611cea565b80601f016020809104026020016040519081016040528092919081815260200182805461120890611cea565b80156112555780601f1061122a57610100808354040283529160200191611255565b820191906000526020600020905b81548152906001019060200180831161123857829003601f168201915b5050505050908060040160009054906101000a900460ff16908060040160019054906101000a900460ff16908060040160029054906101000a900473ffffffffffffffffffffffffffffffffffffffff16908060050180546112b690611cea565b80601f01602080910402602001604051908101604052809291908181526020018280546112e290611cea565b801561132f5780601f106113045761010080835404028352916020019161132f565b820191906000526020600020905b81548152906001019060200180831161131257829003601f168201915b5050505050905088565b6113cf8160405160240161134d91906121dc565b6040516020818303038152906040527f41304fac000000000000000000000000000000000000000000000000000000007bffffffffffffffffffffffffffffffffffffffffffffffffffffffff19166020820180517bffffffffffffffffffffffffffffffffffffffffffffffffffffffff83818316178352505050506113d2565b50565b6113e9816113e16113ec61140d565b63ffffffff16565b50565b60006a636f6e736f6c652e6c6f679050600080835160208501845afa505050565b611418819050919050565b6114206121fe565b565b6000604051905090565b600080fd5b600080fd5b600073ffffffffffffffffffffffffffffffffffffffff82169050919050565b600061146182611436565b9050919050565b61147181611456565b811461147c57600080fd5b50565b60008135905061148e81611468565b92915050565b6000819050919050565b6114a781611494565b81146114b257600080fd5b50565b6000813590506114c48161149e565b92915050565b6000819050919050565b6114dd816114ca565b81146114e857600080fd5b50565b6000813590506114fa816114d4565b92915050565b6000806000606084860312156115195761151861142c565b5b60006115278682870161147f565b9350506020611538868287016114b5565b9250506040611549868287016114eb565b9150509250925092565b61155c81611456565b82525050565b60006020820190506115776000830184611553565b92915050565b600080604083850312156115945761159361142c565b5b60006115a28582860161147f565b92505060206115b3858286016114b5565b9150509250929050565b6115c681611494565b82525050565b6115d5816114ca565b82525050565b60008115159050919050565b6115f0816115db565b82525050565b600060a08201905061160b6000830188611553565b61161860208301876115bd565b61162560408301866115cc565b61163260608301856115e7565b61163f60808301846115bd565b9695505050505050565b60006020828403121561165f5761165e61142c565b5b600061166d848285016114b5565b91505092915050565b600081519050919050565b600082825260208201905092915050565b60005b838110156116b0578082015181840152602081019050611695565b60008484015250505050565b6000601f19601f8301169050919050565b60006116d882611676565b6116e28185611681565b93506116f2818560208601611692565b6116fb816116bc565b840191505092915050565b600060e08201905061171b600083018a6115bd565b818103602083015261172d81896116cd565b9050818103604083015261174181886116cd565b905061175060608301876115e7565b61175d60808301866115e7565b61176a60a0830185611553565b81810360c083015261177c81846116cd565b905098975050505050505050565b600080fd5b600080fd5b7f4e487b7100000000000000000000000000000000000000000000000000000000600052604160045260246000fd5b6117cc826116bc565b810181811067ffffffffffffffff821117156117eb576117ea611794565b5b80604052505050565b60006117fe611422565b905061180a82826117c3565b919050565b600067ffffffffffffffff82111561182a57611829611794565b5b611833826116bc565b9050602081019050919050565b82818337600083830152505050565b600061186261185d8461180f565b6117f4565b90508281526020810184848401111561187e5761187d61178f565b5b611889848285611840565b509392505050565b600082601f8301126118a6576118a561178a565b5b81356118b684826020860161184f565b91505092915050565b60008060008060008060c087890312156118dc576118db61142c565b5b60006118ea89828a016114b5565b96505060206118fb89828a016114b5565b955050604087013567ffffffffffffffff81111561191c5761191b611431565b5b61192889828a01611891565b945050606087013567ffffffffffffffff81111561194957611948611431565b5b61195589828a01611891565b935050608061196689828a0161147f565b92505060a087013567ffffffffffffffff81111561198757611986611431565b5b61199389828a01611891565b9150509295509295509295565b6000806000606084860312156119b9576119b861142c565b5b60006119c78682870161147f565b935050602084013567ffffffffffffffff8111156119e8576119e7611431565b5b6119f486828701611891565b925050604084013567ffffffffffffffff811115611a1557611a14611431565b5b611a2186828701611891565b9150509250925092565b600061010082019050611a41600083018b6115bd565b611a4e602083018a6115bd565b8181036040830152611a6081896116cd565b90508181036060830152611a7481886116cd565b9050611a8360808301876115e7565b611a9060a08301866115e7565b611a9d60c0830185611553565b81810360e0830152611aaf81846116cd565b90509998505050505050505050565b7f4c6f616e20616d6f756e74206d7573742062652067726561746572207468616e60008201527f2030000000000000000000000000000000000000000000000000000000000000602082015250565b6000611b1a602283611681565b9150611b2582611abe565b604082019050919050565b60006020820190508181036000830152611b4981611b0d565b9050919050565b6000604082019050611b6560008301856115bd565b611b7260208301846115bd565b9392505050565b6000602082019050611b8e60008301846115cc565b92915050565b611b9d816115db565b8114611ba857600080fd5b50565b600081519050611bba81611b94565b92915050565b60008060408385031215611bd757611bd661142c565b5b6000611be585828601611bab565b9250506020611bf685828601611bab565b9150509250929050565b7f4e487b7100000000000000000000000000000000000000000000000000000000600052601160045260246000fd5b6000611c3a82611494565b9150611c4583611494565b9250828203905081811115611c5d57611c5c611c00565b5b92915050565b7f4e487b7100000000000000000000000000000000000000000000000000000000600052603260045260246000fd5b6000604082019050611ca760008301856115e7565b611cb460208301846115bd565b9392505050565b7f4e487b7100000000000000000000000000000000000000000000000000000000600052602260045260246000fd5b60006002820490506001821680611d0257607f821691505b602082108103611d1557611d14611cbb565b5b50919050565b7f4c6f616e20616c72656164792070726f63657373656400000000000000000000600082015250565b6000611d51601683611681565b9150611d5c82611d1b565b602082019050919050565b60006020820190508181036000830152611d8081611d44565b9050919050565b60008190508160005260206000209050919050565b60006020601f8301049050919050565b600082821b905092915050565b600060088302611de97fffffffffffffffffffffffffffffffffffffffffffffffffffffffffffffffff82611dac565b611df38683611dac565b95508019841693508086168417925050509392505050565b6000819050919050565b6000611e30611e2b611e2684611494565b611e0b565b611494565b9050919050565b6000819050919050565b611e4a83611e15565b611e5e611e5682611e37565b848454611db9565b825550505050565b600090565b611e73611e66565b611e7e818484611e41565b505050565b5b81811015611ea257611e97600082611e6b565b600181019050611e84565b5050565b601f821115611ee757611eb881611d87565b611ec184611d9c565b81016020851015611ed0578190505b611ee4611edc85611d9c565b830182611e83565b50505b505050565b600082821c905092915050565b6000611f0a60001984600802611eec565b1980831691505092915050565b6000611f238383611ef9565b9150826002028217905092915050565b611f3c82611676565b67ffffffffffffffff811115611f5557611f54611794565b5b611f5f8254611cea565b611f6a828285611ea6565b600060209050601f831160018114611f9d5760008415611f8b578287015190505b611f958582611f17565b865550611ffd565b601f198416611fab86611d87565b60005b82811015611fd357848901518255600182019150602085019450602081019050611fae565b86831015611ff05784890151611fec601f891682611ef9565b8355505b6001600288020188555050505b505050505050565b600081905092915050565b7f666f727761726465640000000000000000000000000000000000000000000000600082015250565b6000612046600983612005565b915061205182612010565b600982019050919050565b600061206782612039565b9150819050919050565b600061207c82611676565b6120868185612005565b9350612096818560208601611692565b80840191505092915050565b60006120ae8284612071565b915081905092915050565b600060e0820190506120ce600083018a611553565b6120db60208301896115bd565b6120e860408301886115bd565b81810360608301526120fa81876116cd565b9050818103608083015261210e81866116cd565b905061211d60a0830185611553565b81810360c083015261212f81846116cd565b905098975050505050505050565b600060a08201905061215260008301886115bd565b818103602083015261216481876116cd565b9050818103604083015261217881866116cd565b90506121876060830185611553565b818103608083015261219981846116cd565b90509695505050505050565b600060408201905081810360008301526121bf81856116cd565b905081810360208301526121d381846116cd565b90509392505050565b600060208201905081810360008301526121f681846116cd565b905092915050565b7f4e487b7100000000000000000000000000000000000000000000000000000000600052605160045260246000fdfe4c6f616e207570646174656420616e642061626f757420746f2073656e64206576656e74a2646970667358221220c50a5e6283001b5ece209ebd99ab17f91608c28f478e74d61435d3c46a8bcbfe64736f6c634300081c0033",
  "linkReferences": {},
  "deployedLinkReferences": {}
}