{
  "_format": "hh-sol-artifact-1",
  "contractName": "MortgageContract",
  "sourceName": "contracts/MortgageContract.sol",
  "abi": [
    {
      "inputs": [
        {
          "internalType": "address",
          "name": "_accessControlAddress",
          "type": "address"
        }
      ],
      "stateMutability": "nonpayable",
      "type": "constructor"
    },
    {
      "anonymous": false,
      "inputs": [
        {
          "indexed": true,
          "internalType": "address",
          "name": "requester",
          "type": "address"
        },
        {
          "indexed": false,
          "internalType": "string",
          "name": "personalIpfsHash",
          "type": "string"
        },
        {
          "indexed": false,
          "internalType": "string",
          "name": "financialIpfsHash",
          "type": "string"
        }
      ],
      "name": "AccessRequestedByMortgage",
      "type": "event"
    },
    {
      "inputs": [],
      "name": "accessControlContractAddress",
      "outputs": [
        {
          "internalType": "address",
          "name": "",
          "type": "address"
        }
      ],
      "stateMutability": "view",
      "type": "function"
    },
    {
      "inputs": [],
      "name": "owner",
      "outputs": [
        {
          "internalType": "address",
          "name": "",
          "type": "address"
        }
      ],
      "stateMutability": "view",
      "type": "function"
    },
    {
      "inputs": [
        {
          "internalType": "address",
          "name": "_userAddress",
          "type": "address"
        },
        {
          "internalType": "string",
          "name": "_personalIpfsHash",
          "type": "string"
        },
        {
          "internalType": "string",
          "name": "_financialIpfsHash",
          "type": "string"
        }
      ],
      "name": "requestUserAccess",
      "outputs": [],
      "stateMutability": "nonpayable",
      "type": "function"
    }
  ],
  "bytecode": "0x608060405234801561001057600080fd5b506040516108263803806108268339818101604052810190610032919061011c565b806000806101000a81548173ffffffffffffffffffffffffffffffffffffffff021916908373ffffffffffffffffffffffffffffffffffffffff16021790555033600160006101000a81548173ffffffffffffffffffffffffffffffffffffffff021916908373ffffffffffffffffffffffffffffffffffffffff16021790555050610149565b600080fd5b600073ffffffffffffffffffffffffffffffffffffffff82169050919050565b60006100e9826100be565b9050919050565b6100f9816100de565b811461010457600080fd5b50565b600081519050610116816100f0565b92915050565b600060208284031215610132576101316100b9565b5b600061014084828501610107565b91505092915050565b6106ce806101586000396000f3fe608060405234801561001057600080fd5b50600436106100415760003560e01c80635f528216146100465780638da5cb5b146100625780639a65f10014610080575b600080fd5b610060600480360381019061005b919061040f565b61009e565b005b61006a61020d565b60405161007791906104a9565b60405180910390f35b610088610233565b60405161009591906104a9565b60405180910390f35b60008054906101000a900473ffffffffffffffffffffffffffffffffffffffff1673ffffffffffffffffffffffffffffffffffffffff1663a7e2981484846040518363ffffffff1660e01b81526004016100f992919061058f565b600060405180830381600087803b15801561011357600080fd5b505af1158015610127573d6000803e3d6000fd5b5050505060008054906101000a900473ffffffffffffffffffffffffffffffffffffffff1673ffffffffffffffffffffffffffffffffffffffff1663a7e2981484836040518363ffffffff1660e01b815260040161018692919061061e565b600060405180830381600087803b1580156101a057600080fd5b505af11580156101b4573d6000803e3d6000fd5b505050508273ffffffffffffffffffffffffffffffffffffffff167fa732d2d61c6c23e90cc242e1a172c6707238e025bcb5ad8c033ecef83a712a678383604051610200929190610661565b60405180910390a2505050565b600160009054906101000a900473ffffffffffffffffffffffffffffffffffffffff1681565b60008054906101000a900473ffffffffffffffffffffffffffffffffffffffff1681565b6000604051905090565b600080fd5b600080fd5b600073ffffffffffffffffffffffffffffffffffffffff82169050919050565b60006102968261026b565b9050919050565b6102a68161028b565b81146102b157600080fd5b50565b6000813590506102c38161029d565b92915050565b600080fd5b600080fd5b6000601f19601f8301169050919050565b7f4e487b7100000000000000000000000000000000000000000000000000000000600052604160045260246000fd5b61031c826102d3565b810181811067ffffffffffffffff8211171561033b5761033a6102e4565b5b80604052505050565b600061034e610257565b905061035a8282610313565b919050565b600067ffffffffffffffff82111561037a576103796102e4565b5b610383826102d3565b9050602081019050919050565b82818337600083830152505050565b60006103b26103ad8461035f565b610344565b9050828152602081018484840111156103ce576103cd6102ce565b5b6103d9848285610390565b509392505050565b600082601f8301126103f6576103f56102c9565b5b813561040684826020860161039f565b91505092915050565b60008060006060848603121561042857610427610261565b5b6000610436868287016102b4565b935050602084013567ffffffffffffffff81111561045757610456610266565b5b610463868287016103e1565b925050604084013567ffffffffffffffff81111561048457610483610266565b5b610490868287016103e1565b9150509250925092565b6104a38161028b565b82525050565b60006020820190506104be600083018461049a565b92915050565b600082825260208201905092915050565b7f706572736f6e616c000000000000000000000000000000000000000000000000600082015250565b600061050b6008836104c4565b9150610516826104d5565b602082019050919050565b600081519050919050565b60005b8381101561054a57808201518184015260208101905061052f565b60008484015250505050565b600061056182610521565b61056b81856104c4565b935061057b81856020860161052c565b610584816102d3565b840191505092915050565b60006060820190506105a4600083018561049a565b81810360208301526105b5816104fe565b905081810360408301526105c98184610556565b90509392505050565b7f66696e616e6369616c0000000000000000000000000000000000000000000000600082015250565b60006106086009836104c4565b9150610613826105d2565b602082019050919050565b6000606082019050610633600083018561049a565b8181036020830152610644816105fb565b905081810360408301526106588184610556565b90509392505050565b6000604082019050818103600083015261067b8185610556565b9050818103602083015261068f8184610556565b9050939250505056fea26469706673582212208820aac8edddd53686c69be20a99c45abcd69b0458b4a0ce43c89aa1e7c52f0664736f6c634300081c0033",
  "linkReferences": {},
  "deployedLinkReferences": {}
}