{
  "_format": "hh-sol-artifact-1",
  "contractName": "MortgageLoanContract",
  "sourceName": "contracts/MortgageLoanContract.sol",
  "abi": [
    {
      "inputs": [
        {
          "internalType": "address",
          "name": "_bankContractAddress",
          "type": "address"
        }
      ],
      "stateMutability": "nonpayable",
      "type": "constructor"
    },
    {
      "anonymous": false,
      "inputs": [
        {
          "indexed": true,
          "internalType": "address",
          "name": "requester",
          "type": "address"
        },
        {
          "indexed": false,
          "internalType": "string",
          "name": "cidType",
          "type": "string"
        },
        {
          "indexed": false,
          "internalType": "string",
          "name": "ipfsHash",
          "type": "string"
        }
      ],
      "name": "AccessRequestGranted",
      "type": "event"
    },
    {
      "anonymous": false,
      "inputs": [
        {
          "indexed": true,
          "internalType": "uint256",
          "name": "loanId",
          "type": "uint256"
        },
        {
          "indexed": false,
          "internalType": "uint256",
          "name": "amount",
          "type": "uint256"
        },
        {
          "indexed": false,
          "internalType": "string",
          "name": "personalCID",
          "type": "string"
        },
        {
          "indexed": false,
          "internalType": "string",
          "name": "financialCID",
          "type": "string"
        },
        {
          "indexed": false,
          "internalType": "address",
          "name": "borrower",
          "type": "address"
        }
      ],
      "name": "ForwardedLoanApprovedEvent",
      "type": "event"
    },
    {
      "anonymous": false,
      "inputs": [
        {
          "indexed": true,
          "internalType": "uint256",
          "name": "loanId",
          "type": "uint256"
        },
        {
          "indexed": false,
          "internalType": "uint256",
          "name": "amount",
          "type": "uint256"
        },
        {
          "indexed": false,
          "internalType": "string",
          "name": "personalCID",
          "type": "string"
        },
        {
          "indexed": false,
          "internalType": "string",
          "name": "financialCID",
          "type": "string"
        },
        {
          "indexed": false,
          "internalType": "address",
          "name": "borrower",
          "type": "address"
        }
      ],
      "name": "ForwardedLoanDeniedEvent",
      "type": "event"
    },
    {
      "anonymous": false,
      "inputs": [
        {
          "indexed": true,
          "internalType": "uint256",
          "name": "loanId",
          "type": "uint256"
        },
        {
          "indexed": false,
          "internalType": "uint256",
          "name": "amount",
          "type": "uint256"
        },
        {
          "indexed": false,
          "internalType": "string",
          "name": "personalCID",
          "type": "string"
        },
        {
          "indexed": false,
          "internalType": "string",
          "name": "financialCID",
          "type": "string"
        },
        {
          "indexed": false,
          "internalType": "address",
          "name": "borrower",
          "type": "address"
        }
      ],
      "name": "LoanApproved",
      "type": "event"
    },
    {
      "anonymous": false,
      "inputs": [
        {
          "indexed": true,
          "internalType": "uint256",
          "name": "loanId",
          "type": "uint256"
        },
        {
          "indexed": false,
          "internalType": "uint256",
          "name": "amount",
          "type": "uint256"
        },
        {
          "indexed": false,
          "internalType": "string",
          "name": "personalCID",
          "type": "string"
        },
        {
          "indexed": false,
          "internalType": "string",
          "name": "financialCID",
          "type": "string"
        },
        {
          "indexed": false,
          "internalType": "address",
          "name": "borrower",
          "type": "address"
        }
      ],
      "name": "LoanDenied",
      "type": "event"
    },
    {
      "anonymous": false,
      "inputs": [
        {
          "indexed": true,
          "internalType": "uint256",
          "name": "loanId",
          "type": "uint256"
        },
        {
          "indexed": false,
          "internalType": "uint256",
          "name": "amount",
          "type": "uint256"
        },
        {
          "indexed": false,
          "internalType": "string",
          "name": "personalCID",
          "type": "string"
        },
        {
          "indexed": false,
          "internalType": "string",
          "name": "financialCID",
          "type": "string"
        },
        {
          "indexed": false,
          "internalType": "address",
          "name": "borrower",
          "type": "address"
        }
      ],
      "name": "LoanForwarded",
      "type": "event"
    },
    {
      "anonymous": false,
      "inputs": [
        {
          "indexed": true,
          "internalType": "address",
          "name": "requester",
          "type": "address"
        },
        {
          "indexed": false,
          "internalType": "uint256",
          "name": "amount",
          "type": "uint256"
        },
        {
          "indexed": false,
          "internalType": "string",
          "name": "cidType",
          "type": "string"
        },
        {
          "indexed": false,
          "internalType": "string",
          "name": "ipfsHash",
          "type": "string"
        }
      ],
      "name": "LoanForwarded",
      "type": "event"
    },
    {
      "inputs": [
        {
          "internalType": "address",
          "name": "_userAddress",
          "type": "address"
        },
        {
          "internalType": "uint256",
          "name": "loanId",
          "type": "uint256"
        },
        {
          "internalType": "uint256",
          "name": "amount",
          "type": "uint256"
        },
        {
          "internalType": "string",
          "name": "personalCID",
          "type": "string"
        },
        {
          "internalType": "string",
          "name": "financialCID",
          "type": "string"
        },
        {
          "internalType": "address",
          "name": "borrower",
          "type": "address"
        },
        {
          "internalType": "string",
          "name": "loanType",
          "type": "string"
        }
      ],
      "name": "ForwardedLoanApproved",
      "outputs": [],
      "stateMutability": "nonpayable",
      "type": "function"
    },
    {
      "inputs": [
        {
          "internalType": "address",
          "name": "_userAddress",
          "type": "address"
        },
        {
          "internalType": "uint256",
          "name": "_loanId",
          "type": "uint256"
        },
        {
          "internalType": "uint256",
          "name": "_amount",
          "type": "uint256"
        },
        {
          "internalType": "string",
          "name": "_personalCID",
          "type": "string"
        },
        {
          "internalType": "string",
          "name": "_financialCID",
          "type": "string"
        },
        {
          "internalType": "address",
          "name": "_borrower",
          "type": "address"
        }
      ],
      "name": "ForwardedLoanDenied",
      "outputs": [],
      "stateMutability": "nonpayable",
      "type": "function"
    },
    {
      "inputs": [
        {
          "internalType": "uint256",
          "name": "_loanId",
          "type": "uint256"
        },
        {
          "internalType": "uint256",
          "name": "_amount",
          "type": "uint256"
        },
        {
          "internalType": "string",
          "name": "_personalCID",
          "type": "string"
        },
        {
          "internalType": "string",
          "name": "_financialCID",
          "type": "string"
        },
        {
          "internalType": "address",
          "name": "_borrower",
          "type": "address"
        }
      ],
      "name": "approveLoan",
      "outputs": [],
      "stateMutability": "nonpayable",
      "type": "function"
    },
    {
      "inputs": [],
      "name": "bankContractAddress",
      "outputs": [
        {
          "internalType": "address",
          "name": "",
          "type": "address"
        }
      ],
      "stateMutability": "view",
      "type": "function"
    },
    {
      "inputs": [
        {
          "internalType": "uint256",
          "name": "_loanId",
          "type": "uint256"
        },
        {
          "internalType": "uint256",
          "name": "_amount",
          "type": "uint256"
        },
        {
          "internalType": "string",
          "name": "_personalCID",
          "type": "string"
        },
        {
          "internalType": "string",
          "name": "_financialCID",
          "type": "string"
        },
        {
          "internalType": "address",
          "name": "_borrower",
          "type": "address"
        }
      ],
      "name": "denyLoan",
      "outputs": [],
      "stateMutability": "nonpayable",
      "type": "function"
    },
    {
      "inputs": [
        {
          "internalType": "address",
          "name": "requester",
          "type": "address"
        },
        {
          "internalType": "uint256",
          "name": "amount",
          "type": "uint256"
        },
        {
          "internalType": "string",
          "name": "personalIpfsHash",
          "type": "string"
        },
        {
          "internalType": "string",
          "name": "financialIpfsHash",
          "type": "string"
        }
      ],
      "name": "forwardLoanApplication",
      "outputs": [],
      "stateMutability": "nonpayable",
      "type": "function"
    },
    {
      "inputs": [
        {
          "internalType": "uint256",
          "name": "_loanId",
          "type": "uint256"
        }
      ],
      "name": "getLoanDetails",
      "outputs": [
        {
          "internalType": "uint256",
          "name": "amount",
          "type": "uint256"
        },
        {
          "internalType": "string",
          "name": "personalCID",
          "type": "string"
        },
        {
          "internalType": "string",
          "name": "financialCID",
          "type": "string"
        },
        {
          "internalType": "bool",
          "name": "isApproved",
          "type": "bool"
        },
        {
          "internalType": "bool",
          "name": "isDenied",
          "type": "bool"
        },
        {
          "internalType": "address",
          "name": "borrower",
          "type": "address"
        }
      ],
      "stateMutability": "view",
      "type": "function"
    },
    {
      "inputs": [
        {
          "internalType": "uint256",
          "name": "",
          "type": "uint256"
        }
      ],
      "name": "loans",
      "outputs": [
        {
          "internalType": "uint256",
          "name": "loanId",
          "type": "uint256"
        },
        {
          "internalType": "uint256",
          "name": "amount",
          "type": "uint256"
        },
        {
          "internalType": "string",
          "name": "personalCID",
          "type": "string"
        },
        {
          "internalType": "string",
          "name": "financialCID",
          "type": "string"
        },
        {
          "internalType": "bool",
          "name": "isApproved",
          "type": "bool"
        },
        {
          "internalType": "bool",
          "name": "isDenied",
          "type": "bool"
        },
        {
          "internalType": "address",
          "name": "borrower",
          "type": "address"
        }
      ],
      "stateMutability": "view",
      "type": "function"
    },
    {
      "inputs": [
        {
          "internalType": "address",
          "name": "requester",
          "type": "address"
        },
        {
          "internalType": "string",
          "name": "cidType",
          "type": "string"
        },
        {
          "internalType": "string",
          "name": "ipfsHash",
          "type": "string"
        }
      ],
      "name": "requestAccessGranted",
      "outputs": [],
      "stateMutability": "nonpayable",
      "type": "function"
    }
  ],
  "bytecode": "0x608060405234801561001057600080fd5b50604051611bc2380380611bc2833981810160405281019061003291906100db565b806000806101000a81548173ffffffffffffffffffffffffffffffffffffffff021916908373ffffffffffffffffffffffffffffffffffffffff16021790555050610108565b600080fd5b600073ffffffffffffffffffffffffffffffffffffffff82169050919050565b60006100a88261007d565b9050919050565b6100b88161009d565b81146100c357600080fd5b50565b6000815190506100d5816100af565b92915050565b6000602082840312156100f1576100f0610078565b5b60006100ff848285016100c6565b91505092915050565b611aab806101176000396000f3fe608060405234801561001057600080fd5b50600436106100935760003560e01c8063932d4e0111610066578063932d4e01146101215780639a3d98501461013d578063bf5be27314610159578063e1ec3c6814610175578063e5034e0a146101ab57610093565b80633b1d512b1461009857806353e8cf89146100b457806366877b8d146100d05780638838c37a14610105575b600080fd5b6100b260048036038101906100ad9190611040565b6101c9565b005b6100ce60048036038101906100c99190611136565b61033c565b005b6100ea60048036038101906100e591906111e9565b61053e565b6040516100fc969594939291906112ce565b60405180910390f35b61011f600480360381019061011a919061133d565b610761565b005b61013b600480360381019061013691906113dc565b6108d9565b005b61015760048036038101906101529190611467565b61092e565b005b610173600480360381019061016e9190611136565b610aa0565b005b61018f600480360381019061018a91906111e9565b610ca2565b6040516101a2979695949392919061152c565b60405180910390f35b6101b3610e2e565b6040516101c091906115a9565b60405180910390f35b6040518060e001604052808781526020018681526020018581526020018481526020016001151581526020016000151581526020018373ffffffffffffffffffffffffffffffffffffffff16815250600160008881526020019081526020016000206000820151816000015560208201518160010155604082015181600201908161025491906117d0565b50606082015181600301908161026a91906117d0565b5060808201518160040160006101000a81548160ff02191690831515021790555060a08201518160040160016101000a81548160ff02191690831515021790555060c08201518160040160026101000a81548173ffffffffffffffffffffffffffffffffffffffff021916908373ffffffffffffffffffffffffffffffffffffffff160217905550905050857fb95a7c6dd078800be20304b10c71a93ce70b12162663caef4aeb81554a42fc898686868660405161032b94939291906118a2565b60405180910390a250505050505050565b6001600086815260200190815260200160002060040160009054906101000a900460ff1615801561038e57506001600086815260200190815260200160002060040160019054906101000a900460ff16155b6103cd576040517f08c379a00000000000000000000000000000000000000000000000000000000081526004016103c490611941565b60405180910390fd5b6040518060e001604052808681526020018581526020018481526020018381526020016001151581526020016000151581526020018273ffffffffffffffffffffffffffffffffffffffff16815250600160008781526020019081526020016000206000820151816000015560208201518160010155604082015181600201908161045891906117d0565b50606082015181600301908161046e91906117d0565b5060808201518160040160006101000a81548160ff02191690831515021790555060a08201518160040160016101000a81548160ff02191690831515021790555060c08201518160040160026101000a81548173ffffffffffffffffffffffffffffffffffffffff021916908373ffffffffffffffffffffffffffffffffffffffff160217905550905050847f125ee548f7a94967a5dc1fed207cae73b83744ca16868b42e088a1cb432e108a8585858560405161052f94939291906118a2565b60405180910390a25050505050565b6000606080600080600080600160008981526020019081526020016000206040518060e0016040529081600082015481526020016001820154815260200160028201805461058b906115f3565b80601f01602080910402602001604051908101604052809291908181526020018280546105b7906115f3565b80156106045780601f106105d957610100808354040283529160200191610604565b820191906000526020600020905b8154815290600101906020018083116105e757829003601f168201915b5050505050815260200160038201805461061d906115f3565b80601f0160208091040260200160405190810160405280929190818152602001828054610649906115f3565b80156106965780601f1061066b57610100808354040283529160200191610696565b820191906000526020600020905b81548152906001019060200180831161067957829003601f168201915b505050505081526020016004820160009054906101000a900460ff161515151581526020016004820160019054906101000a900460ff161515151581526020016004820160029054906101000a900473ffffffffffffffffffffffffffffffffffffffff1673ffffffffffffffffffffffffffffffffffffffff1673ffffffffffffffffffffffffffffffffffffffff1681525050905080602001518160400151826060015183608001518460a001518560c001519650965096509650965096505091939550919395565b60008054906101000a900473ffffffffffffffffffffffffffffffffffffffff1673ffffffffffffffffffffffffffffffffffffffff1663042bad46858585856040518563ffffffff1660e01b81526004016107c09493929190611961565b600060405180830381600087803b1580156107da57600080fd5b505af11580156107ee573d6000803e3d6000fd5b5050505060008054906101000a900473ffffffffffffffffffffffffffffffffffffffff1673ffffffffffffffffffffffffffffffffffffffff16635f5282168584846040518463ffffffff1660e01b815260040161084f939291906119b4565b600060405180830381600087803b15801561086957600080fd5b505af115801561087d573d6000803e3d6000fd5b505050508373ffffffffffffffffffffffffffffffffffffffff167f814e4afed2c3fc6c13ef5577fffc708e5976eb82285a1f6fabfe80b1a02f33c78484846040516108cb939291906119f9565b60405180910390a250505050565b8273ffffffffffffffffffffffffffffffffffffffff167f10e1ed07d8fe057a66b8f3ef03a008a9c446826893ce827bdfda5f3f2c7ca5268383604051610921929190611a3e565b60405180910390a2505050565b6040518060e001604052808681526020018581526020018481526020018381526020016000151581526020016001151581526020018273ffffffffffffffffffffffffffffffffffffffff1681525060016000878152602001908152602001600020600082015181600001556020820151816001015560408201518160020190816109b991906117d0565b5060608201518160030190816109cf91906117d0565b5060808201518160040160006101000a81548160ff02191690831515021790555060a08201518160040160016101000a81548160ff02191690831515021790555060c08201518160040160026101000a81548173ffffffffffffffffffffffffffffffffffffffff021916908373ffffffffffffffffffffffffffffffffffffffff160217905550905050847fb69e5e50a360181e73393606a7c48b6825384d65a8be586b21990f0abcd6480d85858585604051610a9094939291906118a2565b60405180910390a2505050505050565b6001600086815260200190815260200160002060040160009054906101000a900460ff16158015610af257506001600086815260200190815260200160002060040160019054906101000a900460ff16155b610b31576040517f08c379a0000000000000000000000000000000000000000000000000000000008152600401610b2890611941565b60405180910390fd5b6040518060e001604052808681526020018581526020018481526020018381526020016000151581526020016001151581526020018273ffffffffffffffffffffffffffffffffffffffff168152506001600087815260200190815260200160002060008201518160000155602082015181600101556040820151816002019081610bbc91906117d0565b506060820151816003019081610bd291906117d0565b5060808201518160040160006101000a81548160ff02191690831515021790555060a08201518160040160016101000a81548160ff02191690831515021790555060c08201518160040160026101000a81548173ffffffffffffffffffffffffffffffffffffffff021916908373ffffffffffffffffffffffffffffffffffffffff160217905550905050847f8634a6ce488b1e95b9541fea55fa93d99ea5d928ef5294f3e02f2dcf71caf9e785858585604051610c9394939291906118a2565b60405180910390a25050505050565b6001602052806000526040600020600091509050806000015490806001015490806002018054610cd1906115f3565b80601f0160208091040260200160405190810160405280929190818152602001828054610cfd906115f3565b8015610d4a5780601f10610d1f57610100808354040283529160200191610d4a565b820191906000526020600020905b815481529060010190602001808311610d2d57829003601f168201915b505050505090806003018054610d5f906115f3565b80601f0160208091040260200160405190810160405280929190818152602001828054610d8b906115f3565b8015610dd85780601f10610dad57610100808354040283529160200191610dd8565b820191906000526020600020905b815481529060010190602001808311610dbb57829003601f168201915b5050505050908060040160009054906101000a900460ff16908060040160019054906101000a900460ff16908060040160029054906101000a900473ffffffffffffffffffffffffffffffffffffffff16905087565b60008054906101000a900473ffffffffffffffffffffffffffffffffffffffff1681565b6000604051905090565b600080fd5b600080fd5b600073ffffffffffffffffffffffffffffffffffffffff82169050919050565b6000610e9182610e66565b9050919050565b610ea181610e86565b8114610eac57600080fd5b50565b600081359050610ebe81610e98565b92915050565b6000819050919050565b610ed781610ec4565b8114610ee257600080fd5b50565b600081359050610ef481610ece565b92915050565b600080fd5b600080fd5b6000601f19601f8301169050919050565b7f4e487b7100000000000000000000000000000000000000000000000000000000600052604160045260246000fd5b610f4d82610f04565b810181811067ffffffffffffffff82111715610f6c57610f6b610f15565b5b80604052505050565b6000610f7f610e52565b9050610f8b8282610f44565b919050565b600067ffffffffffffffff821115610fab57610faa610f15565b5b610fb482610f04565b9050602081019050919050565b82818337600083830152505050565b6000610fe3610fde84610f90565b610f75565b905082815260208101848484011115610fff57610ffe610eff565b5b61100a848285610fc1565b509392505050565b600082601f83011261102757611026610efa565b5b8135611037848260208601610fd0565b91505092915050565b600080600080600080600060e0888a03121561105f5761105e610e5c565b5b600061106d8a828b01610eaf565b975050602061107e8a828b01610ee5565b965050604061108f8a828b01610ee5565b955050606088013567ffffffffffffffff8111156110b0576110af610e61565b5b6110bc8a828b01611012565b945050608088013567ffffffffffffffff8111156110dd576110dc610e61565b5b6110e98a828b01611012565b93505060a06110fa8a828b01610eaf565b92505060c088013567ffffffffffffffff81111561111b5761111a610e61565b5b6111278a828b01611012565b91505092959891949750929550565b600080600080600060a0868803121561115257611151610e5c565b5b600061116088828901610ee5565b955050602061117188828901610ee5565b945050604086013567ffffffffffffffff81111561119257611191610e61565b5b61119e88828901611012565b935050606086013567ffffffffffffffff8111156111bf576111be610e61565b5b6111cb88828901611012565b92505060806111dc88828901610eaf565b9150509295509295909350565b6000602082840312156111ff576111fe610e5c565b5b600061120d84828501610ee5565b91505092915050565b61121f81610ec4565b82525050565b600081519050919050565b600082825260208201905092915050565b60005b8381101561125f578082015181840152602081019050611244565b60008484015250505050565b600061127682611225565b6112808185611230565b9350611290818560208601611241565b61129981610f04565b840191505092915050565b60008115159050919050565b6112b9816112a4565b82525050565b6112c881610e86565b82525050565b600060c0820190506112e36000830189611216565b81810360208301526112f5818861126b565b90508181036040830152611309818761126b565b905061131860608301866112b0565b61132560808301856112b0565b61133260a08301846112bf565b979650505050505050565b6000806000806080858703121561135757611356610e5c565b5b600061136587828801610eaf565b945050602061137687828801610ee5565b935050604085013567ffffffffffffffff81111561139757611396610e61565b5b6113a387828801611012565b925050606085013567ffffffffffffffff8111156113c4576113c3610e61565b5b6113d087828801611012565b91505092959194509250565b6000806000606084860312156113f5576113f4610e5c565b5b600061140386828701610eaf565b935050602084013567ffffffffffffffff81111561142457611423610e61565b5b61143086828701611012565b925050604084013567ffffffffffffffff81111561145157611450610e61565b5b61145d86828701611012565b9150509250925092565b60008060008060008060c0878903121561148457611483610e5c565b5b600061149289828a01610eaf565b96505060206114a389828a01610ee5565b95505060406114b489828a01610ee5565b945050606087013567ffffffffffffffff8111156114d5576114d4610e61565b5b6114e189828a01611012565b935050608087013567ffffffffffffffff81111561150257611501610e61565b5b61150e89828a01611012565b92505060a061151f89828a01610eaf565b9150509295509295509295565b600060e082019050611541600083018a611216565b61154e6020830189611216565b8181036040830152611560818861126b565b90508181036060830152611574818761126b565b905061158360808301866112b0565b61159060a08301856112b0565b61159d60c08301846112bf565b98975050505050505050565b60006020820190506115be60008301846112bf565b92915050565b7f4e487b7100000000000000000000000000000000000000000000000000000000600052602260045260246000fd5b6000600282049050600182168061160b57607f821691505b60208210810361161e5761161d6115c4565b5b50919050565b60008190508160005260206000209050919050565b60006020601f8301049050919050565b600082821b905092915050565b6000600883026116867fffffffffffffffffffffffffffffffffffffffffffffffffffffffffffffffff82611649565b6116908683611649565b95508019841693508086168417925050509392505050565b6000819050919050565b60006116cd6116c86116c384610ec4565b6116a8565b610ec4565b9050919050565b6000819050919050565b6116e7836116b2565b6116fb6116f3826116d4565b848454611656565b825550505050565b600090565b611710611703565b61171b8184846116de565b505050565b5b8181101561173f57611734600082611708565b600181019050611721565b5050565b601f8211156117845761175581611624565b61175e84611639565b8101602085101561176d578190505b61178161177985611639565b830182611720565b50505b505050565b600082821c905092915050565b60006117a760001984600802611789565b1980831691505092915050565b60006117c08383611796565b9150826002028217905092915050565b6117d982611225565b67ffffffffffffffff8111156117f2576117f1610f15565b5b6117fc82546115f3565b611807828285611743565b600060209050601f83116001811461183a5760008415611828578287015190505b61183285826117b4565b86555061189a565b601f19841661184886611624565b60005b828110156118705784890151825560018201915060208501945060208101905061184b565b8683101561188d5784890151611889601f891682611796565b8355505b6001600288020188555050505b505050505050565b60006080820190506118b76000830187611216565b81810360208301526118c9818661126b565b905081810360408301526118dd818561126b565b90506118ec60608301846112bf565b95945050505050565b7f4c6f616e20616c72656164792070726f63657373656400000000000000000000600082015250565b600061192b601683611230565b9150611936826118f5565b602082019050919050565b6000602082019050818103600083015261195a8161191e565b9050919050565b600060808201905061197660008301876112bf565b6119836020830186611216565b8181036040830152611995818561126b565b905081810360608301526119a9818461126b565b905095945050505050565b60006060820190506119c960008301866112bf565b81810360208301526119db818561126b565b905081810360408301526119ef818461126b565b9050949350505050565b6000606082019050611a0e6000830186611216565b8181036020830152611a20818561126b565b90508181036040830152611a34818461126b565b9050949350505050565b60006040820190508181036000830152611a58818561126b565b90508181036020830152611a6c818461126b565b9050939250505056fea264697066735822122080bca364074c3680a44c3f6bea45d66ab2c0297dd8f1495c71b234596bee616b64736f6c634300081c0033",
  "linkReferences": {},
  "deployedLinkReferences": {}
}