{
  "_format": "hh-sol-artifact-1",
  "contractName": "BankContract",
  "sourceName": "contracts/BankContract.sol",
  "abi": [
    {
      "inputs": [
        {
          "internalType": "address",
          "name": "_accessControlAddress",
          "type": "address"
        }
      ],
      "stateMutability": "nonpayable",
      "type": "constructor"
    },
    {
      "anonymous": false,
      "inputs": [
        {
          "indexed": true,
          "internalType": "address",
          "name": "requester",
          "type": "address"
        },
        {
          "indexed": false,
          "internalType": "string",
          "name": "personalIpfsHash",
          "type": "string"
        },
        {
          "indexed": false,
          "internalType": "string",
          "name": "financialIpfsHash",
          "type": "string"
        }
      ],
      "name": "AccessRequestedByBank",
      "type": "event"
    },
    {
      "anonymous": false,
      "inputs": [
        {
          "indexed": true,
          "internalType": "address",
          "name": "requester",
          "type": "address"
        },
        {
          "indexed": false,
          "internalType": "uint256",
          "name": "amount",
          "type": "uint256"
        },
        {
          "indexed": false,
          "internalType": "string",
          "name": "personalIpfsHash",
          "type": "string"
        },
        {
          "indexed": false,
          "internalType": "string",
          "name": "financialIpfsHash",
          "type": "string"
        }
      ],
      "name": "ReceivedForwardedLoan",
      "type": "event"
    },
    {
      "inputs": [],
      "name": "accessControlContractAddress",
      "outputs": [
        {
          "internalType": "address",
          "name": "",
          "type": "address"
        }
      ],
      "stateMutability": "view",
      "type": "function"
    },
    {
      "inputs": [],
      "name": "owner",
      "outputs": [
        {
          "internalType": "address",
          "name": "",
          "type": "address"
        }
      ],
      "stateMutability": "view",
      "type": "function"
    },
    {
      "inputs": [
        {
          "internalType": "address",
          "name": "_userAddress",
          "type": "address"
        },
        {
          "internalType": "uint256",
          "name": "amount",
          "type": "uint256"
        },
        {
          "internalType": "string",
          "name": "_personalIpfsHash",
          "type": "string"
        },
        {
          "internalType": "string",
          "name": "_financialIpfsHash",
          "type": "string"
        }
      ],
      "name": "receiveForwardedLoan",
      "outputs": [],
      "stateMutability": "nonpayable",
      "type": "function"
    },
    {
      "inputs": [
        {
          "internalType": "address",
          "name": "_userAddress",
          "type": "address"
        },
        {
          "internalType": "string",
          "name": "_personalIpfsHash",
          "type": "string"
        },
        {
          "internalType": "string",
          "name": "_financialIpfsHash",
          "type": "string"
        }
      ],
      "name": "requestUserAccess",
      "outputs": [],
      "stateMutability": "nonpayable",
      "type": "function"
    }
  ],
  "bytecode": "0x608060405234801561001057600080fd5b506040516109ce3803806109ce8339818101604052810190610032919061011c565b806000806101000a81548173ffffffffffffffffffffffffffffffffffffffff021916908373ffffffffffffffffffffffffffffffffffffffff16021790555033600160006101000a81548173ffffffffffffffffffffffffffffffffffffffff021916908373ffffffffffffffffffffffffffffffffffffffff16021790555050610149565b600080fd5b600073ffffffffffffffffffffffffffffffffffffffff82169050919050565b60006100e9826100be565b9050919050565b6100f9816100de565b811461010457600080fd5b50565b600081519050610116816100f0565b92915050565b600060208284031215610132576101316100b9565b5b600061014084828501610107565b91505092915050565b610876806101586000396000f3fe608060405234801561001057600080fd5b506004361061004c5760003560e01c8063042bad46146100515780635f5282161461006d5780638da5cb5b146100895780639a65f100146100a7575b600080fd5b61006b600480360381019061006691906104c4565b6100c5565b005b61008760048036038101906100829190610563565b61011d565b005b61009161028c565b60405161009e91906105fd565b60405180910390f35b6100af6102b2565b6040516100bc91906105fd565b60405180910390f35b8373ffffffffffffffffffffffffffffffffffffffff167ff936a204845ff89e1483ee4117930a97cfdc5d6be218f3f0feb79c14d5d4d52084848460405161010f939291906106a6565b60405180910390a250505050565b60008054906101000a900473ffffffffffffffffffffffffffffffffffffffff1673ffffffffffffffffffffffffffffffffffffffff1663a7e2981484846040518363ffffffff1660e01b8152600401610178929190610737565b600060405180830381600087803b15801561019257600080fd5b505af11580156101a6573d6000803e3d6000fd5b5050505060008054906101000a900473ffffffffffffffffffffffffffffffffffffffff1673ffffffffffffffffffffffffffffffffffffffff1663a7e2981484836040518363ffffffff1660e01b81526004016102059291906107c6565b600060405180830381600087803b15801561021f57600080fd5b505af1158015610233573d6000803e3d6000fd5b505050508273ffffffffffffffffffffffffffffffffffffffff167f49995015dc468df951afdfb802ef871b83e08acf1f033a9f30660344dfeb5430838360405161027f929190610809565b60405180910390a2505050565b600160009054906101000a900473ffffffffffffffffffffffffffffffffffffffff1681565b60008054906101000a900473ffffffffffffffffffffffffffffffffffffffff1681565b6000604051905090565b600080fd5b600080fd5b600073ffffffffffffffffffffffffffffffffffffffff82169050919050565b6000610315826102ea565b9050919050565b6103258161030a565b811461033057600080fd5b50565b6000813590506103428161031c565b92915050565b6000819050919050565b61035b81610348565b811461036657600080fd5b50565b60008135905061037881610352565b92915050565b600080fd5b600080fd5b6000601f19601f8301169050919050565b7f4e487b7100000000000000000000000000000000000000000000000000000000600052604160045260246000fd5b6103d182610388565b810181811067ffffffffffffffff821117156103f0576103ef610399565b5b80604052505050565b60006104036102d6565b905061040f82826103c8565b919050565b600067ffffffffffffffff82111561042f5761042e610399565b5b61043882610388565b9050602081019050919050565b82818337600083830152505050565b600061046761046284610414565b6103f9565b90508281526020810184848401111561048357610482610383565b5b61048e848285610445565b509392505050565b600082601f8301126104ab576104aa61037e565b5b81356104bb848260208601610454565b91505092915050565b600080600080608085870312156104de576104dd6102e0565b5b60006104ec87828801610333565b94505060206104fd87828801610369565b935050604085013567ffffffffffffffff81111561051e5761051d6102e5565b5b61052a87828801610496565b925050606085013567ffffffffffffffff81111561054b5761054a6102e5565b5b61055787828801610496565b91505092959194509250565b60008060006060848603121561057c5761057b6102e0565b5b600061058a86828701610333565b935050602084013567ffffffffffffffff8111156105ab576105aa6102e5565b5b6105b786828701610496565b925050604084013567ffffffffffffffff8111156105d8576105d76102e5565b5b6105e486828701610496565b9150509250925092565b6105f78161030a565b82525050565b600060208201905061061260008301846105ee565b92915050565b61062181610348565b82525050565b600081519050919050565b600082825260208201905092915050565b60005b83811015610661578082015181840152602081019050610646565b60008484015250505050565b600061067882610627565b6106828185610632565b9350610692818560208601610643565b61069b81610388565b840191505092915050565b60006060820190506106bb6000830186610618565b81810360208301526106cd818561066d565b905081810360408301526106e1818461066d565b9050949350505050565b7f706572736f6e616c000000000000000000000000000000000000000000000000600082015250565b6000610721600883610632565b915061072c826106eb565b602082019050919050565b600060608201905061074c60008301856105ee565b818103602083015261075d81610714565b90508181036040830152610771818461066d565b90509392505050565b7f66696e616e6369616c0000000000000000000000000000000000000000000000600082015250565b60006107b0600983610632565b91506107bb8261077a565b602082019050919050565b60006060820190506107db60008301856105ee565b81810360208301526107ec816107a3565b90508181036040830152610800818461066d565b90509392505050565b60006040820190508181036000830152610823818561066d565b90508181036020830152610837818461066d565b9050939250505056fea26469706673582212205a68d6183c95d0626822e9ede106bcd41fc365a67d8ceb676281ed11dcd2d62b64736f6c634300081c0033",
  "linkReferences": {},
  "deployedLinkReferences": {}
}